{
  "contractName": "Certification",
  "abi": [
    {
      "inputs": [
        {
          "internalType": "string",
          "name": "certificateId",
          "type": "string"
        }
      ],
      "name": "getCertificateFunc",
      "outputs": [
        {
          "components": [
            {
              "internalType": "string",
              "name": "firstName",
              "type": "string"
            },
            {
              "internalType": "string",
              "name": "lastName",
              "type": "string"
            },
            {
              "internalType": "string",
              "name": "studentCode",
              "type": "string"
            },
            {
              "internalType": "string",
              "name": "citizenIdentificationCode",
              "type": "string"
            },
            {
              "internalType": "string",
              "name": "birth",
              "type": "string"
            },
            {
              "internalType": "string",
              "name": "gender",
              "type": "string"
            },
            {
              "internalType": "string",
              "name": "degreeClassification",
              "type": "string"
            },
            {
              "internalType": "string",
              "name": "academicYear",
              "type": "string"
            },
            {
              "internalType": "address",
              "name": "verifiedBy",
              "type": "address"
            }
          ],
          "internalType": "struct Certification.Certificate",
          "name": "",
          "type": "tuple"
        }
      ],
      "stateMutability": "view",
      "type": "function",
      "constant": true
    },
    {
      "inputs": [
        {
          "internalType": "string",
          "name": "certificateId",
          "type": "string"
        }
      ],
      "name": "isCertificateValidFunc",
      "outputs": [
        {
          "internalType": "bool",
          "name": "",
          "type": "bool"
        }
      ],
      "stateMutability": "view",
      "type": "function",
      "constant": true
    },
    {
      "inputs": [
        {
          "internalType": "string",
          "name": "certificateId",
          "type": "string"
        },
        {
          "internalType": "string",
          "name": "firstName",
          "type": "string"
        },
        {
          "internalType": "string",
          "name": "lastName",
          "type": "string"
        },
        {
          "internalType": "string",
          "name": "studentCode",
          "type": "string"
        },
        {
          "internalType": "string",
          "name": "citizenIdentificationCode",
          "type": "string"
        },
        {
          "internalType": "string",
          "name": "birth",
          "type": "string"
        },
        {
          "internalType": "string",
          "name": "gender",
          "type": "string"
        },
        {
          "internalType": "string",
          "name": "degreeClassification",
          "type": "string"
        },
        {
          "internalType": "string",
          "name": "academicYear",
          "type": "string"
        }
      ],
      "name": "addCertificate",
      "outputs": [],
      "stateMutability": "nonpayable",
      "type": "function"
    }
  ],
  "bytecode": "0x608060405234801561001057600080fd5b50610e81806100206000396000f3fe608060405234801561001057600080fd5b50600436106100415760003560e01c806321eba3d4146100465780639a3962ab14610062578063e5e69fa014610092575b600080fd5b610060600480360381019061005b9190610932565b6100c2565b005b61007c600480360381019061007791906108f1565b610230565b6040516100899190610c80565b60405180910390f35b6100ac60048036038101906100a791906108f1565b61074f565b6040516100b99190610c65565b60405180910390f35b6000808a6040516100d39190610c4e565b90815260200160405180910390209050888160000190805190602001906100fb929190610784565b5087816001019080519060200190610114929190610784565b508681600201908051906020019061012d929190610784565b5085816003019080519060200190610146929190610784565b508481600401908051906020019061015f929190610784565b5083816005019080519060200190610178929190610784565b5082816006019080519060200190610191929190610784565b50818160070190805190602001906101aa929190610784565b50338160080160006101000a81548173ffffffffffffffffffffffffffffffffffffffff021916908373ffffffffffffffffffffffffffffffffffffffff1602179055506001808b6040516101ff9190610c4e565b908152602001604051809103902060006101000a81548160ff02191690831515021790555050505050505050505050565b61023861080a565b6000826040516102489190610c4e565b90815260200160405180910390206040518061012001604052908160008201805461027290610daa565b80601f016020809104026020016040519081016040528092919081815260200182805461029e90610daa565b80156102eb5780601f106102c0576101008083540402835291602001916102eb565b820191906000526020600020905b8154815290600101906020018083116102ce57829003601f168201915b5050505050815260200160018201805461030490610daa565b80601f016020809104026020016040519081016040528092919081815260200182805461033090610daa565b801561037d5780601f106103525761010080835404028352916020019161037d565b820191906000526020600020905b81548152906001019060200180831161036057829003601f168201915b5050505050815260200160028201805461039690610daa565b80601f01602080910402602001604051908101604052809291908181526020018280546103c290610daa565b801561040f5780601f106103e45761010080835404028352916020019161040f565b820191906000526020600020905b8154815290600101906020018083116103f257829003601f168201915b5050505050815260200160038201805461042890610daa565b80601f016020809104026020016040519081016040528092919081815260200182805461045490610daa565b80156104a15780601f10610476576101008083540402835291602001916104a1565b820191906000526020600020905b81548152906001019060200180831161048457829003601f168201915b505050505081526020016004820180546104ba90610daa565b80601f01602080910402602001604051908101604052809291908181526020018280546104e690610daa565b80156105335780601f1061050857610100808354040283529160200191610533565b820191906000526020600020905b81548152906001019060200180831161051657829003601f168201915b5050505050815260200160058201805461054c90610daa565b80601f016020809104026020016040519081016040528092919081815260200182805461057890610daa565b80156105c55780601f1061059a576101008083540402835291602001916105c5565b820191906000526020600020905b8154815290600101906020018083116105a857829003601f168201915b505050505081526020016006820180546105de90610daa565b80601f016020809104026020016040519081016040528092919081815260200182805461060a90610daa565b80156106575780601f1061062c57610100808354040283529160200191610657565b820191906000526020600020905b81548152906001019060200180831161063a57829003601f168201915b5050505050815260200160078201805461067090610daa565b80601f016020809104026020016040519081016040528092919081815260200182805461069c90610daa565b80156106e95780601f106106be576101008083540402835291602001916106e9565b820191906000526020600020905b8154815290600101906020018083116106cc57829003601f168201915b505050505081526020016008820160009054906101000a900473ffffffffffffffffffffffffffffffffffffffff1673ffffffffffffffffffffffffffffffffffffffff1673ffffffffffffffffffffffffffffffffffffffff16815250509050919050565b60006001826040516107619190610c4e565b908152602001604051809103902060009054906101000a900460ff169050919050565b82805461079090610daa565b90600052602060002090601f0160209004810192826107b257600085556107f9565b82601f106107cb57805160ff19168380011785556107f9565b828001600101855582156107f9579182015b828111156107f85782518255916020019190600101906107dd565b5b509050610806919061086c565b5090565b6040518061012001604052806060815260200160608152602001606081526020016060815260200160608152602001606081526020016060815260200160608152602001600073ffffffffffffffffffffffffffffffffffffffff1681525090565b5b8082111561088557600081600090555060010161086d565b5090565b600061089c61089784610cd3565b610ca2565b9050828152602081018484840111156108b457600080fd5b6108bf848285610d68565b509392505050565b600082601f8301126108d857600080fd5b81356108e8848260208601610889565b91505092915050565b60006020828403121561090357600080fd5b600082013567ffffffffffffffff81111561091d57600080fd5b610929848285016108c7565b91505092915050565b60008060008060008060008060006101208a8c03121561095157600080fd5b60008a013567ffffffffffffffff81111561096b57600080fd5b6109778c828d016108c7565b99505060208a013567ffffffffffffffff81111561099457600080fd5b6109a08c828d016108c7565b98505060408a013567ffffffffffffffff8111156109bd57600080fd5b6109c98c828d016108c7565b97505060608a013567ffffffffffffffff8111156109e657600080fd5b6109f28c828d016108c7565b96505060808a013567ffffffffffffffff811115610a0f57600080fd5b610a1b8c828d016108c7565b95505060a08a013567ffffffffffffffff811115610a3857600080fd5b610a448c828d016108c7565b94505060c08a013567ffffffffffffffff811115610a6157600080fd5b610a6d8c828d016108c7565b93505060e08a013567ffffffffffffffff811115610a8a57600080fd5b610a968c828d016108c7565b9250506101008a013567ffffffffffffffff811115610ab457600080fd5b610ac08c828d016108c7565b9150509295985092959850929598565b610ad981610d2a565b82525050565b610ae881610d3c565b82525050565b6000610af982610d03565b610b038185610d0e565b9350610b13818560208601610d77565b610b1c81610e3a565b840191505092915050565b6000610b3282610d03565b610b3c8185610d1f565b9350610b4c818560208601610d77565b80840191505092915050565b6000610120830160008301518482036000860152610b768282610aee565b91505060208301518482036020860152610b908282610aee565b91505060408301518482036040860152610baa8282610aee565b91505060608301518482036060860152610bc48282610aee565b91505060808301518482036080860152610bde8282610aee565b91505060a083015184820360a0860152610bf88282610aee565b91505060c083015184820360c0860152610c128282610aee565b91505060e083015184820360e0860152610c2c8282610aee565b915050610100830151610c43610100860182610ad0565b508091505092915050565b6000610c5a8284610b27565b915081905092915050565b6000602082019050610c7a6000830184610adf565b92915050565b60006020820190508181036000830152610c9a8184610b58565b905092915050565b6000604051905081810181811067ffffffffffffffff82111715610cc957610cc8610e0b565b5b8060405250919050565b600067ffffffffffffffff821115610cee57610ced610e0b565b5b601f19601f8301169050602081019050919050565b600081519050919050565b600082825260208201905092915050565b600081905092915050565b6000610d3582610d48565b9050919050565b60008115159050919050565b600073ffffffffffffffffffffffffffffffffffffffff82169050919050565b82818337600083830152505050565b60005b83811015610d95578082015181840152602081019050610d7a565b83811115610da4576000848401525b50505050565b60006002820490506001821680610dc257607f821691505b60208210811415610dd657610dd5610ddc565b5b50919050565b7f4e487b7100000000000000000000000000000000000000000000000000000000600052602260045260246000fd5b7f4e487b7100000000000000000000000000000000000000000000000000000000600052604160045260246000fd5b6000601f19601f830116905091905056fea264697066735822122004cb5a5be96b530fb0e3749eb3030d151b376a0eb45cbc4f70e6044d6bef6bcf64736f6c63430008000033",
  "immutableReferences": {},
  "source": "// SPDX-License-Identifier: GPL-2.0-or-later\npragma solidity ^0.8.0;\n\ncontract Certification {\n\tstruct Certificate {\n\t\tstring firstName;\n\t\tstring lastName;\n\t\tstring studentCode;\n\t\tstring citizenIdentificationCode;\n\t\tstring birth;\n\t\tstring gender\t;\n\t\tstring degreeClassification;\n\t\tstring academicYear;\n\t\taddress verifiedBy;\n\t}\n\n\tmapping(string => Certificate) private certificates;\n\tmapping(string => bool) private isCertificateValid;\n\n\tfunction getCertificateFunc(\n\t\tstring memory certificateId\n\t) external view returns (Certificate memory) {\n\t\treturn certificates[certificateId];\n\t}\n\n\tfunction isCertificateValidFunc(\n\t\tstring memory certificateId\n\t) external view returns (bool) {\n\t\treturn isCertificateValid[certificateId];\n\t}\n\n\tfunction addCertificate(\n\t\tstring memory certificateId,\n\t\tstring memory firstName,\n\t\tstring memory lastName,\n\t\tstring memory studentCode,\n\t\tstring memory citizenIdentificationCode,\n\t\tstring memory birth,\n\t\tstring memory gender,\n\t\tstring memory degreeClassification,\n\t\tstring memory academicYear\n\t) external {\n\t\tCertificate storage certificate = certificates[certificateId];\n\n\t\tcertificate.firstName = firstName;\n\n\t\tcertificate.lastName = lastName;\n\n\t\tcertificate.studentCode = studentCode;\n\n\t\tcertificate.citizenIdentificationCode = citizenIdentificationCode;\n\n\t\tcertificate.birth = birth;\n\n\t\tcertificate.gender = gender;\n\n\t\tcertificate.degreeClassification = degreeClassification;\n\n\t\tcertificate.academicYear = academicYear;\n\n\t\tcertificate.verifiedBy = msg.sender;\n\n\t\tisCertificateValid[certificateId] = true;\n\t}\n}\n",
  "sourcePath": "/home/harry/Documents/DoAN/nest-next-boilerplate/contract/contracts/Certification.sol",
  "compiler": {
    "name": "solc",
    "version": "0.8.0+commit.c7dfd78e.Emscripten.clang"
  },
  "schemaVersion": "3.4.14",
  "updatedAt": "2023-06-25T18:30:48.241Z",
  "networkType": "ethereum",
  "devdoc": {
    "kind": "dev",
    "methods": {},
    "version": 1
  },
  "userdoc": {
    "kind": "user",
    "methods": {},
    "version": 1
  }
}